:040000008A110D282C
:10000800FE00030E83120313A0000A08A1008A153C
:10001800B0298A110F2883137830FD000930FE00BB
:100028003E30FF006E3084008A154C218A11523010
:1000380084006E308A1536218A1183018A156B2C4B
:100048006C03031D2828292854288A1519238A1186
:1000580083120313CD00EC0130304D02031C352808
:1000680036283C283A304D02031C3B283C284828B7
:1000780041304D02031C41284228542847304D0284
:1000880003184728482854284D088A11F5278A114B
:100098000D308A11F5278A110A308A11F5278A113D
:1000A800831203135D086102031D64285C08600263
:1000B800031D64285B085F02031D64285A085E025A
:1000C800031C672868287B288316031306100B1265
:1000D800003083120313DD000030DC000030DB0049
:1000E8000030DA0089100910EB01EA010B126108EF
:1000F800D1006008D0005F08CF005E08CE00003055
:10010800A5000030A4002730A3001030A200510839
:10011800A9005008A8004F08A7004E08A6008A1595
:10012800B1228A11831203132308CC002208CB00C2
:100138000030A5000030A4002730A3001030A20032
:100148005108A9005008A8004F08A7004E08A600AB
:100158008A15FD218A11831203132508D10024086A
:10016800D0002308CF002208CE00023086004B08BA
:10017800413E84008313000888000130A20000304B
:10018800A3008A11CE278A11003083120313A50019
:100198000030A4000330A300E830A2005108A900F1
:1001A8005008A8004F08A7004E08A6008A15B122DB
:1001B8008A11831203132308CC002208CB000030D5
:1001C800A5000030A4000330A300E830A2005108C5
:1001D800A9005008A8004F08A7004E08A6008A15D5
:1001E800FD218A11831203132508D1002408D000A9
:1001F8002308CF002208CE00043086004B08413E79
:1002080084008313000888000130A2000030A30096
:100218008A11CE278A11003083120313A5000030FB
:10022800A4000030A3006430A2005108A9005008BF
:10023800A8004F08A7004E08A6008A15B1228A1107
:10024800831203132308CC002208CB000030A5003A
:100258000030A4000030A3006430A2005108A900B7
:100268005008A8004F08A7004E08A6008A15FD21CF
:100278008A11831203132508D1002408D00023080B
:10028800CF002208CE00083086004B08413E84008B
:100298008313000888000130A2000030A3008A11EF
:1002A800CE278A11003083120313A5000030A40062
:1002B8000030A3000A30A2005108A9005008A80085
:1002C8004F08A7004E08A6008A15B1228A1183128A
:1002D80003132308CC002208CB00103086004B08FB
:1002E800413E84008313000888000130A2000030DA
:1002F800A3008A11CE278A11003083120313A500A8
:100308000030A4000030A3000A30A2005108A90060
:100318005008A8004F08A7004E08A6008A15FD211E
:100328008A11831203132308CC002208CB00203043
:1003380086004B08413E8400831300088800013082
:10034800A2000030A3008A11CE278A11333083120D
:1003580003134D06031DB129B22924280B128B1053
:10036800831603130610003083120313E1000030D4
:10037800E0000030DF000030DE000030DD0000303B
:10038800DC000030DB000030DA0089100910EB01D6
:10039800EA016903031DD129D3298A15C52C6C03E9
:1003A800031DD729D829BB2C8A1519238A11831232
:1003B8000313CD00EC0130304D02031CE429E5297C
:1003C800EB293A304D02031CEA29EB29F729413081
:1003D8004D02031CF029F129032A47304D02031866
:1003E800F629F729032A4D088A11F5278A110D30B5
:1003F8008A11F5278A110A308A11F5278A113330B4
:10040800831203134D06031D0A2A0B2A182A6203B6
:100418006304031D102A112A122A182A0130E20245
:100428000030031CE303E30233304D06031D1D2A8D
:100438001E2A2C2A053062066304031D242A252A55
:10044800262A2C2A0130E2070318E30A0030E307C2
:1004580033304D06031D312A322A5B2B62036304B5
:10046800031D372A382A5B2A5D08031D4A2A0130F2
:100478005C02031D472A86305B02031D472A9F3012
:100488005A02031D472A03184A2A4B2A5B2A0130BD
:1004980083120313DA07003003180130DB0700303A
:1004A80003180130DC07003003180130DD07023083
:1004B8008312031362066304031D632A642A9B2ABA
:1004C8005D08031D762A01305C02031D732A8630FD
:1004D8005B02031D732A96305A02031D732A031800
:1004E800762A772A9B2A0A3083120313BD0000302C
:1004F800BE000030BF000030C0005A08BD075B08CE
:1005080003185B0F882A892ABE075C0803185C0F4A
:100518008E2A8F2ABF075D0803185D0AC0074008A6
:10052800DD003F08DC003E08DB003D08DA00033050
:100538008312031362066304031DA32AA42ADB2A79
:100548005D08031DB62A01305C02031DB32A8630FC
:100558005B02031DB32A3C305A02031DB32A031859
:10056800B62AB72ADB2A643083120313BD00003091
:10057800BE000030BF000030C0005A08BD075B084D
:1005880003185B0FC82AC92ABE075C0803185C0F4A
:10059800CE2ACF2ABF075D0803185D0AC0074008A6
:1005A800DD003F08DC003E08DB003D08DA000430CF
:1005B8008312031362066304031DE32AE42A1B2B38
:1005C8005D08031DF62A01305C02031DF32A823000
:1005D8005B02031DF32AB8305A02031DF32A0318DD
:1005E800F62AF72A1B2BE83083120313BD000330C9
:1005F800BE000030BF000030C0005A08BD075B08CD
:1006080003185B0F082B092BBE075C0803185C0F47
:100618000E2B0F2BBF075D0803185D0AC0074008A3
:10062800DD003F08DC003E08DB003D08DA0005304D
:100638008312031362066304031D232B242B5B2BF5
:100648005D08031D362B01305C02031D332B5F3020
:100658005B02031D332B90305A02031D332B031802
:10066800362B372B5B2B103083120313BD0027303A
:10067800BE000030BF000030C0005A08BD075B084C
:1006880003185B0F482B492BBE075C0803185C0F47
:100698004E2B4F2BBF075D0803185D0AC0074008A3
:1006A800DD003F08DC003E08DB003D08DA0033309F
:1006B800831203134D06031D622B632B852C6203E3
:1006C8006304031D682B692B8D2B5D085C045B0498
:1006D8005A040319702B712B8D2B0130BD0000308B
:1006E800BE000030BF000030C0003D08DA023E08FE
:1006F800031C3E0F802B812BDB023F08031C3F0F9E
:10070800862B872BDC024008031C400F8C2B8D2B7B
:10071800DD02023062066304031D932B942BC92B60
:100728005D08031DA52B5C08031DA52B5B08031D95
:10073800A52B0B305A02031DA12B031CA42BA52BA0
:10074800C92BF63083120313BD00FF30BE00FF3003
:10075800BF00FF30C0005A08BD075B0803185B0FD5
:10076800B62BB72BBE075C0803185C0FBC2BBD2B40
:10077800BF075D0803185D0AC0074008DD003F0891
:10078800DC003E08DB003D08DA0003308312031367
:1007980062066304031DD12BD22B072C5D08031DB1
:1007A800E32B5C08031DE32B5B08031DE32B65307B
:1007B8005A02031DDF2B031CE22BE32B072C9C3072
:1007C80083120313BD00FF30BE00FF30BF00FF30AF
:1007D800C0005A08BD075B0803185B0FF42BF52B04
:1007E800BE075C0803185C0FFA2BFB2BBF075D08DC
:1007F80003185D0AC0074008DD003F08DC003E081A
:10080800DB003D08DA000430831203136206630438
:10081800031D0F2C102C462C5D08031D222C5C0890
:10082800031D222C03305B02031D1E2CE9305A02E3
:10083800031D1E2C031C212C222C462C183083123D
:100848000313BD00FC30BE00FF30BF00FF30C00006
:100858005A08BD075B0803185B0F332C342CBE07FE
:100868005C0803185C0F392C3A2CBF075D08031885
:100878005D0AC0074008DD003F08DC003E08DB00D9
:100888003D08DA0005308312031362066304031D72
:100898004E2C4F2C852C5D08031D612C5C08031D14
:1008A800612C27305B02031D5D2C11305A02031D99
:1008B8005D2C031C602C612C852CF03083120313F3
:1008C800BD00D830BE00FF30BF00FF30C0005A085E
:1008D800BD075B0803185B0F722C732CBE075C08FE
:1008E80003185C0F782C792CBF075D0803185D0A84
:1008F800C0074008DD003F08DC003E08DB003D087B
:10090800DA003330831203134D06031D8C2C8D2C13
:10091800A22C0B168316031306140030831203133C
:10092800E1000030E0000030DF000030DE00891414
:100938000914EA01EA0AEB01E901D12933304D062D
:10094800031DA72CA82CBB2C0B128316031306100F
:10095800003083120313E1000030E0000030DF00B4
:100968000030DE0089100910EB01EA01A02C5D08B7
:10097800D1005C08D0005B08CF005A08CE000030D8
:10098800A5000030A4002730A3001030A2005108B1
:10099800A9005008A8004F08A7004E08A6008A150D
:1009A800B1228A11831203132308CC002208CB003A
:1009B8000030A5000030A4002730A3001030A200AA
:1009C8005108A9005008A8004F08A7004E08A60023
:1009D8008A15FD218A11831203132508D1002408E2
:1009E800D0002308CF002208CE006803031DFD2C89
:1009F800FE2C072D053062066304031D042D052D0A
:100A0800072D8601092D023086004B08413E8400DF
:100A18008313000888000130A2000030A3008A1167
:100A2800CE278A11003083120313A5000030A400DA
:100A38000330A300E830A2005108A9005008A8001C
:100A48004F08A7004E08A6008A15B1228A11831202
:100A580003132308CC002208CB000030A500003087
:100A6800A4000330A300E830A2005108A9005008F0
:100A7800A8004F08A7004E08A6008A15FD218A1174
:100A8800831203132508D1002408D0002308CF00BF
:100A98002208CE006803031D522D532D5C2D04300F
:100AA80062066304031D592D5A2D5C2D86015E2DA7
:100AB800043086004B08413E8400831300088800F8
:100AC8000130A2000030A3008A11CE278A1100301D
:100AD80083120313A5000030A4000030A300643083
:100AE800A2005108A9005008A8004F08A7004E0806
:100AF800A6008A15B1228A11831203132308CC0099
:100B08002208CB000030A5000030A4000030A3006C
:100B18006430A2005108A9005008A8004F08A70097
:100B28004E08A6008A15FD218A1183120313250891
:100B3800D1002408D0002308CF002208CE00680383
:100B4800031DA72DA82DB12D033062066304031DD4
:100B5800AE2DAF2DB12D8601B32D083086004B0880
:100B6800413E84008313000888000130A200003051
:100B7800A3008A11CE278A11003083120313A5001F
:100B88000030A4000030A3000A30A2005108A900D8
:100B98005008A8004F08A7004E08A6008A15B122E1
:100BA8008A11831203132308CC002208CB006803A0
:100BB800031DDF2DE02DE92D023062066304031DBD
:100BC800E62DE72DE92D8601EB2D103086004B0828
:100BD800413E84008313000888000130A2000030E1
:100BE800A3008A11CE278A11003083120313A500AF
:100BF8000030A4000030A3000A30A2005108A90068
:100C08005008A8004F08A7004E08A6008A15FD2125
:100C18008A11831203132308CC002208CB0068032F
:100C2800031D172E182E202E62036304031D1D2E8C
:100C38001E2E202E8601222E203086004B08413E93
:100C480084008313000888000130A2000030A3004C
:100C58008A11CE278A113330831203134D06031DE0
:100C6800362E372ED3290B120030E1000030E00079
:100C78000030DF000030DE00A201A20A00300918AF
:100C880001308A1596238A1183120313A201A20A3E
:100C98000030891801308A1596238A1183120313AC
:100CA800EB01EA01D1298A110D2883120313A6004A
:100CB8002608A30003300310A30CFF3E031D5F2E7C
:100CC8002308A50026080739A600282F220803199B
:100CD8006E2E6F2E7F2E0130A300260A752E03106C
:100CE800A30DFF3E031D732E2308A40024088316BA
:100CF80003138504412F0130A300260A852E031013
:100D0800A30DFF3E031D832E2308FF3AA4002408E9
:100D1800831603138505412F22080319942E952E57
:100D2800A52E0130A300260A9B2E0310A30DFF3E1B
:100D3800031D992E2308A400240883160313860490
:100D4800412F0130A300260AAB2E0310A30DFF3E4E
:100D5800031DA92E2308FF3AA400240883160313B1
:100D68008605412F22080319BA2EBB2ECB2E01303F
:100D7800A300260AC12E0310A30DFF3E031DBF2E9C
:100D88002308A4002408831603138704412F013085
:100D9800A300260AD12E0310A30DFF3E031DCF2E5C
:100DA8002308FF3AA4002408831603138705412F5C
:100DB80022080319E02EE12EF12E0130A300260AA5
:100DC800E72E0310A30DFF3E031DE52E2308A40004
:100DD8002408831603138804412F0130A300260A30
:100DE800F72E0310A30DFF3E031DF52E2308FF3A2F
:100DF800A4002408831603138805412F2208031929
:100E0800062F072F172F0130A300260A0D2F0310D6
:100E1800A30DFF3E031D0B2F2308A40024088316EF
:100E280003138904412F0130A300260A1D2F031044
:100E3800A30DFF3E031D1B2F2308FF3AA40024081F
:100E4800831603138905412F2508A300A40124084C
:100E5800003A0319302F412F2308003A03196A2E4C
:100E6800013A0319902E033A0319B62E013A0319D1
:100E7800DC2E073A0319022F412F080083120313AF
:100E8800A600A5012608A20003300310A20CFF3E0D
:100E9800031D492F2208A40026080739A600B32FEE
:100EA8000130A200260A5A2F0310A20DFF3E031D8F
:100EB800582F22080505031D622F642F0130652F66
:100EC8000030A500CC2F0130A200260A6D2F031098
:100ED800A20DFF3E031D6B2F22080605031D752F6B
:100EE800772F0130782F0030A500CC2F0130A200D9
:100EF800260A802F0310A20DFF3E031D7E2F220815
:100F08000705031D882F8A2F01308B2F0030A5007D
:100F1800CC2F0130A200260A932F0310A20DFF3E0A
:100F2800031D912F22080805031D9B2F9D2F0130BB
:100F38009E2F0030A500CC2F0130A200260AA62F34
:100F48000310A20DFF3E031DA42F22080905031D4F
:100F5800AE2FB02F0130B12F0030A500CC2F2408C0
:100F6800A200A3012308003A0319BB2FCC2F2208A3
:100F7800003A0319542F013A0319672F033A03194A
:100F88007A2F013A03198D2F073A0319A02FCC2F76
:100F98002508080083120313A401A501EA2FA6015E
:100FA800A7010130A6070318A70A0030A7070030D9
:100FB8002702643003192602031CE32FE42FD52FE0
:100FC8000130A4070318A50A0030A5072308250245
:100FD800031DF02F22082402031CF32FF42FD32F14
:100FE800080083120313A2000C1EFB2FFC2FF82FFE
:100FF8000C1222089900080008308A000408840AA4
:1010080082070034303431343234333434343534B4
:101018003634373438343934413442344334443440
:0410280045344634D1
:10126C0064008001840A040603190034040637293B
:10127C0002349F3425340D349934493441341F34AD
:10128C00013409347E088A007F0882008A154821BF
:10129C008A158000840A04087D0603190034FF0AAD
:1012AC000319FE0A4C298030831603138700203063
:1012BC00980090308312031398003C08B3003B084D
:1012CC00B2003A08B1003908B0008A1553228A15C9
:1012DC00080083120313AF002F08D6002708D7008D
:1012EC002808D8002908D9002A08D2002B08D300D6
:1012FC002C08D4002D08D500B001A2013008563EB0
:10130C008400831300088A1159268A150130831230
:10131C000313AE002E08B00704303002031C9729CB
:10132C0098298329B001A201A20A3008523E8400F8
:10133C00831300088A1159268A150130831203136E
:10134C00AE002E08B00704303002031CAE29AF29C2
:10135C00992908008B1CB329B429C3290130DE0755
:10136C00003003180130DF07003003180130E007AC
:10137C00003003180130E1078B100B1DC629C7295B
:10138C00F6290130E6070318E70A0030E7070130B9
:10139C00E4070318E50A0030E50700306502323037
:1013AC0003196402031CDB29DC29E629E401E501AD
:1013BC0068080319E229E4290130E5290030E80026
:1013CC00003067020A3003196602031CEE29EF296C
:1013DC00F329E601E701EC01EC0A653081000B1101
:1013EC0021088A00200E8300FE0E7E0E0900831257
:1013FC00031325082404230422040319062A072AAC
:10140C004A2AAB01AB0A172A0130AA000310A20D1D
:10141C00A30DA40DA50DAA0B0C2A0130AA002A08B5
:10142C00AB07A51F1A2A1B2A0A2A25082902031D05
:10143C00292A24082802031D292A23082702031D10
:10144C00292A22082602031C2C2A2D2A3B2A220890
:10145C00A6022308031C230FA7022408031C240F35
:10146C00A8022508031C250FA90201300310A50CA6
:10147C00A40CA30CA20CFF3E031D3C2A0130AB02B2
:10148C00031D492A4A2A1B2A2908A5002808A4005A
:10149C002708A3002608A2000800831203133308B0
:1014AC00031D672A3208031D672A09303102031D08
:1014BC00632A60303002031D632A031C662A672AE4
:1014CC00A82A831203133308031D7B2A013032022E
:1014DC00031D782AC2303102031D782A01303002F4
:1014EC00031D782A03187B2A7C2AA82A831203134B
:1014FC003008B4003108B5003208B6003308B70024
:10150C0006300310B40DB50DB60DB70DFF3E031D1F
:10151C00872A3708A5003608A4003508A30034082C
:10152C00A2000030A9007A30A8001230A7000030C9
:10153C00A6008A15B1228A15831203132208FF3ED6
:10154C00B800AC2A0C3083120313B8003808831689
:10155C00031399000800003083120313AE0000300F
:10156C00AD000030AC000030AB002508240423048F
:10157C0022040319C22AC32A102BAF01AF0AD32AA3
:10158C000130AA000310A20DA30DA40DA50DAA0BEA
:10159C00C82A0130AA002A08AF07A51FD62AD72AC5
:1015AC00C62A0130AA000310AB0DAC0DAD0DAE0D6B
:1015BC00AA0BD92A25082902031DEE2A2408280281
:1015CC00031DEE2A23082702031DEE2A22082602F9
:1015DC00031CF12AF22A012B2208A6022308031C61
:1015EC00230FA7022408031C240FA8022508031CA0
:1015FC00250FA9022B1401300310A50CA40CA30C6D
:10160C00A20CFF3E031D022B0130AF02031D0F2B5A
:10161C00102BD72A2E08A5002D08A4002C08A300F7
:10162C002B08A200080083120313A901AB01A2012D
:10163C00A20A2B08563E8400831300088A159623B1
:10164C008A15013083120313A7002708AB07043057
:10165C002B02031C322B332B1D2BAB01A2012B08AD
:10166C00563E8400831300088A1596238A1583122C
:10167C000313AA012A08523E8400831300088A111E
:10168C0042278A15003A031D4C2B4D2B522B8312EB
:10169C000313A901A90A5E2B013083120313A700BF
:1016AC002708AA0704302A02031C5D2B5E2B402B53
:1016BC002903031D622B632B642B7A2BA201A20A34
:1016CC002B08563E8400831300088A1596238A152E
:1016DC00013083120313A7002708AB0704302B0239
:1016EC00031C792B7A2B342B04302B0203187F2B01
:1016FC00802B932B2B08A70002300310A70DFF3E65
:10170C00031D832B01302707A8002A082807840013
:10171C008A1500208A15A900942BA9012908080014
:10172C0083120313A6002608A30003300310A30C96
:10173C00FF3E031D9C2B2308A50026080739A60095
:10174C00512C22080319AB2BAC2BBA2B0130A30064
:10175C00260AB22B0310A30DFF3E031DB02B23084A
:10176C00A400240885046A2C0130A300260AC02B8F
:10177C000310A30DFF3E031DBE2B2308FF3AA4004C
:10178C00240885056A2C22080319CD2BCE2BDC2BC3
:10179C000130A300260AD42B0310A30DFF3E031D1A
:1017AC00D22B2308A400240886046A2C0130A30041
:1017BC00260AE22B0310A30DFF3E031DE02B23088A
:1017CC00FF3AA400240886056A2C22080319EF2B83
:1017DC00F02BFE2B0130A300260AF62B0310A30DD1
:1017EC00FF3E031DF42B2308A400240887046A2C55
:1017FC000130A300260A042C0310A30DFF3E031D89
:10180C00022C2308FF3AA400240887056A2C22081E
:10181C000319112C122C202C0130A300260A182C91
:10182C000310A30DFF3E031D162C2308A40024084F
:10183C0088046A2C0130A300260A262C0310A30D61
:10184C00FF3E031D242C2308FF3AA400240888051E
:10185C006A2C22080319332C342C422C0130A3009F
:10186C00260A3A2C0310A30DFF3E031D382C230827
:10187C00A400240889046A2C0130A300260A482CF1
:10188C000310A30DFF3E031D462C2308FF3AA400B2
:10189C00240889056A2C2508A300A4012408003A11
:1018AC000319592C6A2C2308003A0319A72B013A67
:1018BC000319C92B033A0319EB2B013A03190D2C0D
:1018CC00073A03192F2C6A2C0800413084006E3023
:1018DC0083120313BD000408BE000A30BF003D088C
:1018EC00840083130008C000BD0A3E088400400831
:1018FC008000BE0ABF0B752C83160313860188016A
:10190C00890106309F0083120313091089101130CE
:10191C00A7001230A8001330A900AA01AB01AB0A32
:10192C000230AC000330AD0010308A156F218A15DF
:10193C00003083120313BC000030BB002530BA000A
:10194C008030B9008A1559218A150A308312031385
:10195C00A2000030A3008A11CE278A158316031328
:10196C00061001130B12011481140115811181123F
:10197C000B178B1664308312031381008B176B08C3
:10198C00031DC92CCA2C792E6A08031DCE2CCF2C12
:10199C00792E6C03031DD32CD42CFF2C8A15192300
:1019AC008A1583120313CD00EC0130304D02031C59
:1019BC00E02CE12CE72C3A304D02031CE62CE72CF2
:1019CC00F32C41304D02031CEC2CED2CFF2C47303A
:1019DC004D020318F22CF32CFF2C4D088A11F5271D
:1019EC008A150D308A11F5278A150A308A11F527C8
:1019FC008A15831203136108D1006008D0005F08B8
:101A0C00CF005E08CE000030A5000030A4002730C7
:101A1C00A3001030A2005108A9005008A8004F08DC
:101A2C00A7004E08A6008A15B1228A15831203134B
:101A3C002308CC002208CB000030A5000030A40005
:101A4C002730A3001030A2005108A9005008A800AC
:101A5C004F08A7004E08A6008A15FD218A1583128F
:101A6C0003132508D1002408D0002308CF00220836
:101A7C00CE00023086004B08413E840083130008E0
:101A8C0088000130A2000030A3008A11CE278A15ED
:101A9C00003083120313A5000030A4000330A30010
:101AAC00E830A2005108A9005008A8004F08A70070
:101ABC004E08A6008A15B1228A1583120313230837
:101ACC00CC002208CB000030A5000030A40003306D
:101ADC00A300E830A2005108A9005008A8004F0844
:101AEC00A7004E08A6008A15FD218A158312031340
:101AFC002508D1002408D0002308CF002208CE00EE
:101B0C00043086004B08413E840083130008880093
:101B1C000130A2000030A3008A11CE278A150030B4
:101B2C0083120313A5000030A4000030A30064301E
:101B3C00A2005108A9005008A8004F08A7004E08A1
:101B4C00A6008A15B1228A15831203132308CC0030
:101B5C002208CB000030A5000030A4000030A30008
:101B6C006430A2005108A9005008A8004F08A70033
:101B7C004E08A6008A15FD218A1583120313250829
:101B8C00D1002408D0002308CF002208CE00083052
:101B9C0086004B08413E8400831300088800013006
:101BAC00A2000030A3008A11CE278A1500308312C0
:101BBC000313A5000030A4000030A3000A30A200DB
:101BCC005108A9005008A8004F08A7004E08A6000D
:101BDC008A15B1228A15831203132308CC0022081C
:101BEC00CB00103086004B08413E84008313000864
:101BFC0088000130A2000030A3008A11CE278A157C
:101C0C00003083120313A5000030A4000030A300A1
:101C1C000A30A2005108A9005008A8004F08A700DC
:101C2C004E08A6008A15FD218A158312031323087A
:101C3C00CC002208CB00203086004B08413E8400AB
:101C4C008313000888000130A2000030A3008A1121
:101C5C00CE278A153330831203134D06031D372EFE
:101C6C00382E4B2E8316031306140B1600308312DA
:101C7C000313E1000030E0000030DF000030DE0034
:101C8C0089140914EB01EB0A792E33304D06031D30
:101C9C00502E512ECF2C8316031306100B1200302E
:101CAC0083120313E1000030E0000030DF0000304D
:101CBC00DE00A201A20A0030091801308A15962311
:101CCC008A1583120313A201A20A0030891801306D
:101CDC008A1596238A1583120313E901E90A013048
:101CEC00E2000030E3006B03031D7D2E7E2EF92FE6
:101CFC006C03031D822E832EAE2E8A1519238A1592
:101D0C0083120313CD00EC0130304D02031C8F2ED7
:101D1C00902E962E3A304D02031C952E962EA22E06
:101D2C0041304D02031C9B2E9C2EAE2E47304D0293
:101D3C000318A12EA22EAE2E4D088A11F5278A1556
:101D4C000D308A11F5278A150A308A11F5278A1564
:101D5C00831203136108D1006008D0005F08CF0024
:101D6C005E08CE000030A5000030A4002730A30090
:101D7C001030A2005108A9005008A8004F08A70075
:101D8C004E08A6008A15B1228A1583120313230864
:101D9C00CC002208CB000030A5000030A400273076
:101DAC00A3001030A2005108A9005008A8004F0849
:101DBC00A7004E08A6008A15FD218A15831203136D
:101DCC002508D1002408D0002308CF002208CE001B
:101DDC00023086004B08413E8400831300088800C3
:101DEC000130A2000030A3008A11CE278A150030E2
:101DFC0083120313A5000030A4000330A300E830C5
:101E0C00A2005108A9005008A8004F08A7004E08CE
:101E1C00A6008A15B1228A15831203132308CC005D
:101E2C002208CB000030A5000030A4000330A30032
:101E3C00E830A2005108A9005008A8004F08A700DC
:101E4C004E08A6008A15FD218A1583120313250856
:101E5C00D1002408D0002308CF002208CE00043083
:101E6C0086004B08413E8400831300088800013033
:101E7C00A2000030A3008A11CE278A1500308312ED
:101E8C000313A5000030A4000030A3006430A200AE
:101E9C005108A9005008A8004F08A7004E08A6003A
:101EAC008A15B1228A15831203132308CC00220849
:101EBC00CB000030A5000030A4000030A30064303B
:101ECC00A2005108A9005008A8004F08A7004E080E
:101EDC00A6008A15FD218A15831203132508D1004B
:101EEC002408D0002308CF002208CE00083086003A
:101EFC004B08413E84008313000888000130A20087
:101F0C000030A3008A11CE278A15003083120313E8
:101F1C00A5000030A4000030A3000A30A200510834
:101F2C00A9005008A8004F08A7004E08A6008A1563
:101F3C00B1228A15831203132308CC002208CB008C
:101F4C00103086004B08413E840083130008880043
:101F5C000130A2000030A3008A11CE278A15003070
:101F6C0083120313A5000030A4000030A3000A3034
:101F7C00A2005108A9005008A8004F08A7004E085D
:101F8C00A6008A15FD218A15831203132308CC00A1
:101F9C002208CB00203086004B08413E840083137E
:101FAC00000888000130A2000030A3008A11CE275F
:101FBC008A153330831203134D06031DE62FE72FCA
:101FCC007E2E0B128316031306100030831203139C
:101FDC00E1000030E0000030DF000030DE0089104E
:101FEC000910EB01EA016A03031DFE2F8A11242854
:041FFC008A11CD2950
:08400000FF3FFF3FFF3FFF3FC0
:02400E007A3FF7
:00000001FF
